{
  "address": "0xCf7Ed3AccA5a467e9e704C703E8D87F634fB0Fc9",
  "abi": [
    {
      "inputs": [
        {
          "internalType": "address",
          "name": "adminAddr_",
          "type": "address"
        },
        {
          "internalType": "uint256",
          "name": "slottingFee_",
          "type": "uint256"
        }
      ],
      "stateMutability": "nonpayable",
      "type": "constructor"
    },
    {
      "anonymous": false,
      "inputs": [
        {
          "indexed": true,
          "internalType": "address",
          "name": "previousOwner",
          "type": "address"
        },
        {
          "indexed": true,
          "internalType": "address",
          "name": "newOwner",
          "type": "address"
        }
      ],
      "name": "OwnershipTransferred",
      "type": "event"
    },
    {
      "inputs": [],
      "name": "adminAddr",
      "outputs": [
        {
          "internalType": "address",
          "name": "",
          "type": "address"
        }
      ],
      "stateMutability": "view",
      "type": "function"
    },
    {
      "inputs": [
        {
          "internalType": "uint256",
          "name": "newSlottingFee",
          "type": "uint256"
        }
      ],
      "name": "changeSlottingFee",
      "outputs": [],
      "stateMutability": "nonpayable",
      "type": "function"
    },
    {
      "inputs": [
        {
          "internalType": "address",
          "name": "client",
          "type": "address"
        },
        {
          "components": [
            {
              "internalType": "string",
              "name": "name",
              "type": "string"
            },
            {
              "internalType": "string",
              "name": "symbol",
              "type": "string"
            },
            {
              "internalType": "address[]",
              "name": "payees",
              "type": "address[]"
            },
            {
              "internalType": "uint256[]",
              "name": "shares",
              "type": "uint256[]"
            },
            {
              "internalType": "uint32",
              "name": "typeOfNFT",
              "type": "uint32"
            },
            {
              "internalType": "uint32",
              "name": "maxSupply",
              "type": "uint32"
            }
          ],
          "internalType": "struct BaseSettings",
          "name": "baseSettings",
          "type": "tuple"
        }
      ],
      "name": "genNFTContract",
      "outputs": [
        {
          "internalType": "address",
          "name": "",
          "type": "address"
        }
      ],
      "stateMutability": "nonpayable",
      "type": "function"
    },
    {
      "inputs": [],
      "name": "owner",
      "outputs": [
        {
          "internalType": "address",
          "name": "",
          "type": "address"
        }
      ],
      "stateMutability": "view",
      "type": "function"
    },
    {
      "inputs": [],
      "name": "renounceOwnership",
      "outputs": [],
      "stateMutability": "nonpayable",
      "type": "function"
    },
    {
      "inputs": [],
      "name": "slottingFee",
      "outputs": [
        {
          "internalType": "uint256",
          "name": "",
          "type": "uint256"
        }
      ],
      "stateMutability": "view",
      "type": "function"
    },
    {
      "inputs": [
        {
          "internalType": "address",
          "name": "newOwner",
          "type": "address"
        }
      ],
      "name": "transferOwnership",
      "outputs": [],
      "stateMutability": "nonpayable",
      "type": "function"
    }
  ],
  "transactionHash": "0x81118c79bc09ff071f5425107bf3aae97ba881aaf45d33288737279cf6b5eaac",
  "args": [
    "0x5FbDB2315678afecb367f032d93F642f64180aa3",
    "300000000000000000"
  ],
  "solcInputHash": "54ce23edfdc18f9daaba9275d15b794a",
  "bytecode": "0x608060405234801561001057600080fd5b5060405161411838038061411883398101604081905261002f916100b6565b818161003a33610066565b600180546001600160a01b0319166001600160a01b039390931692909217909155600255506100ee9050565b600080546001600160a01b038381166001600160a01b0319831681178455604051919092169283917f8be0079c531659141344cd1fd0a4f28419497f9722a3daafe3b4186f6b6457e09190a35050565b600080604083850312156100c8578182fd5b82516001600160a01b03811681146100de578283fd5b6020939093015192949293505050565b61401b806100fd6000396000f3fe60806040523480156200001157600080fd5b5060043610620000765760003560e01c8063715018a6146200007b5780638183059314620000875780638da5cb5b14620000b3578063a4a3578a14620000bd578063e962371314620000d4578063ea88a3b814620000eb578063f2fde38b1462000104575b600080fd5b620000856200011b565b005b6001546200009b906001600160a01b031681565b604051620000aa9190620006f5565b60405180910390f35b6200009b62000166565b62000085620000ce36600462000630565b62000175565b6200009b620000e5366004620005d7565b62000209565b620000f560025481565b604051908152602001620000aa565b620000856200011536600462000592565b62000374565b336200012662000166565b6001600160a01b031614620001585760405162461bcd60e51b81526004016200014f9062000798565b60405180910390fd5b6200016460006200041d565b565b6000546001600160a01b031690565b336200018062000166565b6001600160a01b031614620001a95760405162461bcd60e51b81526004016200014f9062000798565b6200020460405180604001604052806018815260200177736c6f7474696e6720666565206368616e67652066726f6d60401b8152506002546040518060400160405280600381526020016220746f60e81b815250846200046d565b600255565b6001546000906001600160a01b0316336001600160a01b0316146200022d57600080fd5b60006200023a83620004c0565b60405163f2fde38b60e01b815290915081906001600160a01b0382169063f2fde38b906200026d908890600401620006f5565b600060405180830381600087803b1580156200028857600080fd5b505af11580156200029d573d6000803e3d6000fd5b505050506200036c6040518060400160405280601081526020016f27232a1021b7b73a3930b1ba1030ba1d60811b81525082604051806040016040528060078152602001661027bbb732b91d60c91b815250846001600160a01b0316638da5cb5b6040518163ffffffff1660e01b8152600401602060405180830381600087803b1580156200032b57600080fd5b505af115801562000340573d6000803e3d6000fd5b505050506040513d601f19601f82011682018060405250810190620003669190620005b8565b62000501565b509392505050565b336200037f62000166565b6001600160a01b031614620003a85760405162461bcd60e51b81526004016200014f9062000798565b6001600160a01b0381166200040f5760405162461bcd60e51b815260206004820152602660248201527f4f776e61626c653a206e6577206f776e657220697320746865207a65726f206160448201526564647265737360d01b60648201526084016200014f565b6200041a816200041d565b50565b600080546001600160a01b038381166001600160a01b0319831681178455604051919092169283917f8be0079c531659141344cd1fd0a4f28419497f9722a3daafe3b4186f6b6457e09190a35050565b620004ba848484846040516024016200048a949392919062000757565b60408051601f198184030181529190526020810180516001600160e01b031663a0c4b22560e01b17905262000549565b50505050565b600081604051620004d1906200056a565b620004dd9190620007cd565b604051809103906000f080158015620004fa573d6000803e3d6000fd5b5092915050565b620004ba848484846040516024016200051e949392919062000709565b60408051601f198184030181529190526020810180516001600160e01b031663aabc9a3160e01b1790525b80516a636f6e736f6c652e6c6f67602083016000808483855afa5050505050565b613649806200099d83390190565b803563ffffffff811681146200058d57600080fd5b919050565b600060208284031215620005a4578081fd5b8135620005b18162000986565b9392505050565b600060208284031215620005ca578081fd5b8151620005b18162000986565b60008060408385031215620005ea578081fd5b8235620005f78162000986565b9150602083013567ffffffffffffffff81111562000613578182fd5b830160c0818603121562000625578182fd5b809150509250929050565b60006020828403121562000642578081fd5b5035919050565b81835260006001600160fb1b0383111562000662578081fd5b8260051b80836020870137939093016020019283525090919050565b81835281816020850137506000828201602090810191909152601f909101601f19169091010190565b60008151808452815b81811015620006ce57602081850181015186830182015201620006b0565b81811115620006e05782602083870101525b50601f01601f19169290920160200192915050565b6001600160a01b0391909116815260200190565b6080815260006200071e6080830187620006a7565b6001600160a01b0386811660208501528382036040850152620007428287620006a7565b92508085166060850152505095945050505050565b6080815260006200076c6080830187620006a7565b8560208401528281036040840152620007868186620006a7565b91505082606083015295945050505050565b6020808252818101527f4f776e61626c653a2063616c6c6572206973206e6f7420746865206f776e6572604082015260600190565b60006020808352620007e084856200093e565b60c083860152620007f660e0860182846200067e565b91505062000807828601866200093e565b601f1980878503016040880152620008218483856200067e565b9350620008326040890189620008ec565b888603830160608a0152808652909490935086925085015b838310156200087e578435620008608162000986565b6001600160a01b03168152938501936001929092019185016200084a565b6200088d60608a018a620008ec565b9650945081888203016080890152620008a881878762000649565b95505050505050620008bd6080850162000578565b63ffffffff811660a085015250620008d860a0850162000578565b63ffffffff811660c0850152509392505050565b6000808335601e1984360301811262000903578283fd5b830160208101925035905067ffffffffffffffff8111156200092457600080fd5b8060051b36038313156200093757600080fd5b9250929050565b6000808335601e1984360301811262000955578283fd5b830160208101925035905067ffffffffffffffff8111156200097657600080fd5b8036038313156200093757600080fd5b6001600160a01b03811681146200041a57600080fdfe60806040523480156200001157600080fd5b506040516200364938038062003649833981016040819052620000349162000690565b608081015160a082015182516020840151604085015160608601516200005a3362000212565b8051825114620000cc5760405162461bcd60e51b815260206004820152603260248201527f5061796d656e7453706c69747465723a2070617965657320616e6420736861726044820152710cae640d8cadccee8d040dad2e6dac2e8c6d60731b60648201526084015b60405180910390fd5b60008251116200011f5760405162461bcd60e51b815260206004820152601a60248201527f5061796d656e7453706c69747465723a206e6f207061796565730000000000006044820152606401620000c3565b60005b8251811015620001a3576200018e8382815181106200015157634e487b7160e01b600052603260045260246000fd5b60200260200101518383815181106200017a57634e487b7160e01b600052603260045260246000fd5b60200260200101516200026260201b60201c565b806200019a8162000874565b91505062000122565b50508251620001bb915060069060208501906200044f565b508051620001d19060079060208401906200044f565b50506012805463ffffffff938416640100000000026001600160401b0319909116939094169290921792909217905550506014805460ff19169055620008be565b600080546001600160a01b038381166001600160a01b0319831681178455604051919092169283917f8be0079c531659141344cd1fd0a4f28419497f9722a3daafe3b4186f6b6457e09190a35050565b6001600160a01b038216620002cf5760405162461bcd60e51b815260206004820152602c60248201527f5061796d656e7453706c69747465723a206163636f756e74206973207468652060448201526b7a65726f206164647265737360a01b6064820152608401620000c3565b60008111620003215760405162461bcd60e51b815260206004820152601d60248201527f5061796d656e7453706c69747465723a207368617265732061726520300000006044820152606401620000c3565b6001600160a01b038216600090815260036020526040902054156200039d5760405162461bcd60e51b815260206004820152602b60248201527f5061796d656e7453706c69747465723a206163636f756e7420616c726561647960448201526a206861732073686172657360a81b6064820152608401620000c3565b6005805460018082019092557f036b6384b5eca791c62761152d0c79bb0604c104a5fb6f4eb0703f3154bb3db00180546001600160a01b0319166001600160a01b038516908117909155600090815260036020526040902082905554620004069082906200081c565b600155604080516001600160a01b0384168152602081018390527f40c340f65e17194d14ddddb073d3c9f888e3cb52b5aae0c6c7706b4fbc905fac910160405180910390a15050565b8280546200045d9062000837565b90600052602060002090601f016020900481019282620004815760008555620004cc565b82601f106200049c57805160ff1916838001178555620004cc565b82800160010185558215620004cc579182015b82811115620004cc578251825591602001919060010190620004af565b50620004da929150620004de565b5090565b5b80821115620004da5760008155600101620004df565b600082601f83011262000506578081fd5b815160206200051f6200051983620007f6565b620007c3565b80838252828201915082860187848660051b89010111156200053f578586fd5b855b85811015620005745781516001600160a01b038116811462000561578788fd5b8452928401929084019060010162000541565b5090979650505050505050565b600082601f83011262000592578081fd5b81516020620005a56200051983620007f6565b80838252828201915082860187848660051b8901011115620005c5578586fd5b855b858110156200057457815184529284019290840190600101620005c7565b600082601f830112620005f6578081fd5b81516001600160401b03811115620006125762000612620008a8565b602062000628601f8301601f19168201620007c3565b82815285828487010111156200063c578384fd5b835b838110156200065b5785810183015182820184015282016200063e565b838111156200066c57848385840101525b5095945050505050565b805163ffffffff811681146200068b57600080fd5b919050565b600060208284031215620006a2578081fd5b81516001600160401b0380821115620006b9578283fd5b9083019060c08286031215620006cd578283fd5b620006d762000798565b825182811115620006e6578485fd5b620006f487828601620005e5565b82525060208301518281111562000709578485fd5b6200071787828601620005e5565b6020830152506040830151828111156200072f578485fd5b6200073d87828601620004f5565b60408301525060608301518281111562000755578485fd5b620007638782860162000581565b606083015250620007776080840162000676565b60808201526200078a60a0840162000676565b60a082015295945050505050565b60405160c081016001600160401b0381118282101715620007bd57620007bd620008a8565b60405290565b604051601f8201601f191681016001600160401b0381118282101715620007ee57620007ee620008a8565b604052919050565b60006001600160401b03821115620008125762000812620008a8565b5060051b60200190565b6000821982111562000832576200083262000892565b500190565b600181811c908216806200084c57607f821691505b602082108114156200086e57634e487b7160e01b600052602260045260246000fd5b50919050565b60006000198214156200088b576200088b62000892565b5060010190565b634e487b7160e01b600052601160045260246000fd5b634e487b7160e01b600052604160045260246000fd5b612d7b80620008ce6000396000f3fe6080604052600436106102205760003560e01c806371f9c53411610124578063b88d4fde116100a6578063b88d4fde14610632578063c634d03214610652578063c87b56dd14610665578063cb774d4714610685578063ce7c2ac21461069b578063d5abeb01146106d1578063e33b7de31461070a578063e3906f911461071f578063e985e9c51461073c578063ecd783c41461075c578063f2fde38b1461077c57600080fd5b806371f9c5341461050b5780637ff9b596146105215780638b83209b146105375780638da5cb5b1461055757806395d89b411461056c578063977b055b146105815780639852595c14610597578063a22cb465146105cd578063a475b5dd146105ed578063ab0bcc4114610602578063b145a5b81461061857600080fd5b8063397be3fd116101ad578063397be3fd146103d75780633a98ef39146103f757806342842e0e1461040c5780634f6ccce71461042c57806355f804b31461044c578063580397061461046c5780636352211e146104815780636a61e5fc146104a15780636c0360eb146104c157806370a08231146104d6578063715018a6146104f657600080fd5b806301ffc9a714610265578063042b30951461029a57806306fdde03146102bc578063081812fc146102de578063095ea7b31461031657806318160ddd1461033857806319165587146103575780631e7fea201461037757806323b872dd146103975780632f745c59146103b757600080fd5b36610260577f6ef95f06320e7a25a04a175ca677b7052bdd97131872c2192525a629f51be7703334604051610256929190612a17565b60405180910390a1005b600080fd5b34801561027157600080fd5b5061028561028036600461283b565b61079c565b60405190151581526020015b60405180910390f35b3480156102a657600080fd5b506102af6107c7565b6040516102919190612b7a565b3480156102c857600080fd5b506102d1610831565b6040516102919190612a6d565b3480156102ea57600080fd5b506102fe6102f9366004612911565b6108c3565b6040516001600160a01b039091168152602001610291565b34801561032257600080fd5b50610336610331366004612810565b610950565b005b34801561034457600080fd5b50600e545b604051908152602001610291565b34801561036357600080fd5b50610336610372366004612673565b610a61565b34801561038357600080fd5b506103366103923660046128b2565b610c29565b3480156103a357600080fd5b506103366103b23660046126c7565b610cfe565b3480156103c357600080fd5b506103496103d2366004612810565b610d2f565b3480156103e357600080fd5b506103366103f2366004612911565b610dc5565b34801561040357600080fd5b50600154610349565b34801561041857600080fd5b506103366104273660046126c7565b610ec3565b34801561043857600080fd5b50610349610447366004612911565b610ede565b34801561045857600080fd5b50610336610467366004612873565b610f7f565b34801561047857600080fd5b506102d1610fba565b34801561048d57600080fd5b506102fe61049c366004612911565b611048565b3480156104ad57600080fd5b506103366104bc366004612911565b6110bf565b3480156104cd57600080fd5b506102d16110f3565b3480156104e257600080fd5b506103496104f1366004612673565b611100565b34801561050257600080fd5b50610336611187565b34801561051757600080fd5b5061034960165481565b34801561052d57600080fd5b5061034960155481565b34801561054357600080fd5b506102fe610552366004612911565b6111c2565b34801561056357600080fd5b506102fe611200565b34801561057857600080fd5b506102d161120f565b34801561058d57600080fd5b5061034960115481565b3480156105a357600080fd5b506103496105b2366004612673565b6001600160a01b031660009081526004602052604090205490565b3480156105d957600080fd5b506103366105e83660046127df565b61121e565b3480156105f957600080fd5b506103366112df565b34801561060e57600080fd5b5061034960105481565b34801561062457600080fd5b506014546102859060ff1681565b34801561063e57600080fd5b5061033661064d366004612707565b611471565b610336610660366004612911565b6114a9565b34801561067157600080fd5b506102d1610680366004612911565b61170a565b34801561069157600080fd5b5061034960175481565b3480156106a757600080fd5b506103496106b6366004612673565b6001600160a01b031660009081526003602052604090205490565b3480156106dd57600080fd5b506012546106f590600160201b900463ffffffff1681565b60405163ffffffff9091168152602001610291565b34801561071657600080fd5b50600254610349565b34801561072b57600080fd5b506012546106f59063ffffffff1681565b34801561074857600080fd5b5061028561075736600461268f565b611875565b34801561076857600080fd5b50610336610777366004612873565b6118a3565b34801561078857600080fd5b50610336610797366004612673565b6118de565b60006001600160e01b0319821663780e9d6360e01b14806107c157506107c18261197e565b92915050565b60408051608081018252606080825260208201819052600092820183905281019190915260405180608001604052806107fe610831565b815260200161080b61120f565b815260125463ffffffff8082166020840152600160201b90910416604090910152919050565b60606006805461084090612c6e565b80601f016020809104026020016040519081016040528092919081815260200182805461086c90612c6e565b80156108b95780601f1061088e576101008083540402835291602001916108b9565b820191906000526020600020905b81548152906001019060200180831161089c57829003601f168201915b5050505050905090565b60006108ce826119ce565b6109345760405162461bcd60e51b815260206004820152602c60248201527f4552433732313a20617070726f76656420717565727920666f72206e6f6e657860448201526b34b9ba32b73a103a37b5b2b760a11b60648201526084015b60405180910390fd5b506000908152600a60205260409020546001600160a01b031690565b600061095b82611048565b9050806001600160a01b0316836001600160a01b031614156109c95760405162461bcd60e51b815260206004820152602160248201527f4552433732313a20617070726f76616c20746f2063757272656e74206f776e656044820152603960f91b606482015260840161092b565b336001600160a01b03821614806109e557506109e58133611875565b610a525760405162461bcd60e51b815260206004820152603860248201527f4552433732313a20617070726f76652063616c6c6572206973206e6f74206f776044820152771b995c881b9bdc88185c1c1c9bdd995908199bdc88185b1b60421b606482015260840161092b565b610a5c83836119eb565b505050565b6001600160a01b038116600090815260036020526040902054610ad55760405162461bcd60e51b815260206004820152602660248201527f5061796d656e7453706c69747465723a206163636f756e7420686173206e6f2060448201526573686172657360d01b606482015260840161092b565b600060025447610ae59190612be0565b6001600160a01b0383166000908152600460209081526040808320546001546003909352908320549394509192610b1c9085612c0c565b610b269190612bf8565b610b309190612c2b565b905080610b935760405162461bcd60e51b815260206004820152602b60248201527f5061796d656e7453706c69747465723a206163636f756e74206973206e6f742060448201526a191d59481c185e5b595b9d60aa1b606482015260840161092b565b6001600160a01b038316600090815260046020526040902054610bb7908290612be0565b6001600160a01b038416600090815260046020526040902055600254610bde908290612be0565b600255610beb8382611a59565b7fdf20fd1e76bc69d672e4814fafb2c449bba3a5369d8359adf9e05e6fde87b0568382604051610c1c929190612a17565b60405180910390a1505050565b33610c32611200565b6001600160a01b031614610c585760405162461bcd60e51b815260040161092b90612af4565b60145460ff1615610ca45760405162461bcd60e51b815260206004820152601660248201527574656d706c6174653a20696e697420616c726561647960501b604482015260640161092b565b6014805460ff19166001179055610cbd60138787612520565b506011849055601583905560108290556016819055604080516020810191829052600090819052610cf0916019916125a4565b505060006017555050505050565b610d083382611b6f565b610d245760405162461bcd60e51b815260040161092b90612b29565b610a5c838383611c39565b6000610d3a83611100565b8210610d9c5760405162461bcd60e51b815260206004820152602b60248201527f455243373231456e756d657261626c653a206f776e657220696e646578206f7560448201526a74206f6620626f756e647360a81b606482015260840161092b565b506001600160a01b03919091166000908152600c60209081526040808320938352929052205490565b33610dce611200565b6001600160a01b031614610df45760405162461bcd60e51b815260040161092b90612af4565b6010544210610e575760405162461bcd60e51b815260206004820152602960248201527f426c696e64626f783a20726573657276652073686f756c64206265666f7265206044820152681cd85b1954dd185c9d60ba1b606482015260840161092b565b6000610e62600e5490565b905060005b82811015610a5c57601254600160201b900463ffffffff16610e898284612be0565b1015610eb157610ea233610e9d8385612be0565b611de4565b601854610eaf9043611e02565b505b80610ebb81612ca9565b915050610e67565b610a5c83838360405180602001604052806000815250611471565b6000610ee9600e5490565b8210610f4c5760405162461bcd60e51b815260206004820152602c60248201527f455243373231456e756d657261626c653a20676c6f62616c20696e646578206f60448201526b7574206f6620626f756e647360a01b606482015260840161092b565b600e8281548110610f6d57634e487b7160e01b600052603260045260246000fd5b90600052602060002001549050919050565b33610f88611200565b6001600160a01b031614610fae5760405162461bcd60e51b815260040161092b90612af4565b610a5c60138383612520565b60198054610fc790612c6e565b80601f0160208091040260200160405190810160405280929190818152602001828054610ff390612c6e565b80156110405780601f1061101557610100808354040283529160200191611040565b820191906000526020600020905b81548152906001019060200180831161102357829003601f168201915b505050505081565b6000818152600860205260408120546001600160a01b0316806107c15760405162461bcd60e51b815260206004820152602960248201527f4552433732313a206f776e657220717565727920666f72206e6f6e657869737460448201526832b73a103a37b5b2b760b91b606482015260840161092b565b336110c8611200565b6001600160a01b0316146110ee5760405162461bcd60e51b815260040161092b90612af4565b601555565b60138054610fc790612c6e565b60006001600160a01b03821661116b5760405162461bcd60e51b815260206004820152602a60248201527f4552433732313a2062616c616e636520717565727920666f7220746865207a65604482015269726f206164647265737360b01b606482015260840161092b565b506001600160a01b031660009081526009602052604090205490565b33611190611200565b6001600160a01b0316146111b65760405162461bcd60e51b815260040161092b90612af4565b6111c06000611e15565b565b6000600582815481106111e557634e487b7160e01b600052603260045260246000fd5b6000918252602090912001546001600160a01b031692915050565b6000546001600160a01b031690565b60606007805461084090612c6e565b6001600160a01b0382163314156112735760405162461bcd60e51b815260206004820152601960248201527822a9219b99189d1030b8383937bb32903a379031b0b63632b960391b604482015260640161092b565b336000818152600b602090815260408083206001600160a01b03871680855290835292819020805460ff191686151590811790915590519081529192917f17307eab39ab6107e8899845ad3d59bd9653f200f220920489ca2b5937696c31910160405180910390a35050565b6017541561132c5760405162461bcd60e51b815260206004820152601a602482015279109b1a5b99109bde0e88185b1c9958591e481c995d99585b195960321b604482015260640161092b565b60125463ffffffff600160201b90910416611346600e5490565b148061135457506016544210155b61139b5760405162461bcd60e51b8152602060048201526018602482015277109b1a5b99109bde0e881b9bdd081c995d99585b081e595d60421b604482015260640161092b565b6000601380546113aa90612c6e565b9050116113f55760405162461bcd60e51b8152602060048201526019602482015278109b1a5b99189bde0e8818985cd9555492481b9bdd081cd95d603a1b604482015260640161092b565b60125460185461141391600160201b900463ffffffff169040612cc4565b60175560185460ff90611427904390611e65565b111561145757601254600160201b900463ffffffff16611448600143612c2b565b611453919040612cc4565b6017555b6017546111c05760175461146c906001611e02565b601755565b61147b3383611b6f565b6114975760405162461bcd60e51b815260040161092b90612b29565b6114a384848484611e71565b50505050565b60145460ff166114fb5760405162461bcd60e51b815260206004820152601f60248201527f426c696e64426f783a206d75737420696e697469616c697a6520666972737400604482015260640161092b565b601054421161154c5760405162461bcd60e51b815260206004820152601f60248201527f426c696e64426f783a2073616c65206973206e6f742073746172742079657400604482015260640161092b565b60115481111561159e5760405162461bcd60e51b815260206004820152601d60248201527f426c696e64426f783a20657863656564206d6178207075726368617365000000604482015260640161092b565b60125463ffffffff600160201b909104166115c2826115bc600e5490565b90611e02565b11156116235760405162461bcd60e51b815260206004820152602a60248201527f426c696e64426f783a20507572636861736520776f756c6420657863656564206044820152696d617820737570706c7960b01b606482015260840161092b565b60155434906116329083611ea4565b11156116925760405162461bcd60e51b815260206004820152602960248201527f426c696e64426f783a2045746865722076616c75652073656e74206973206e6f6044820152681d0818dbdc9c9958dd60ba1b606482015260840161092b565b600061169d600e5490565b905060005b82811015610a5c576116bf6116b5611200565b610e9d8385612be0565b6116ea6116ca611200565b336116d58486612be0565b60405180602001604052806000815250611e71565b6018546116f79043611e02565b508061170281612ca9565b9150506116a2565b6060611715826119ce565b6117795760405162461bcd60e51b815260206004820152602f60248201527f4552433732314d657461646174613a2055524920717565727920666f72206e6f60448201526e3732bc34b9ba32b73a103a37b5b2b760891b606482015260840161092b565b6017541561181257601254601754600091600160201b900463ffffffff16906117a3908590612be0565b6117ad9190612cc4565b90506117df6040518060400160405280600e81526020016d03a37b5b2b724b73232bc1034b9960951b81525082611eb0565b60136117ea82611ef5565b6040516020016117fb929190612971565b604051602081830303815290604052915050919050565b6019805461181f90612c6e565b1515905061186a5760125460139061184390600160201b900463ffffffff16611ef5565b604051602001611854929190612971565b6040516020818303038152906040529050919050565b601961184383611ef5565b6001600160a01b039182166000908152600b6020908152604080832093909416825291909152205460ff1690565b336118ac611200565b6001600160a01b0316146118d25760405162461bcd60e51b815260040161092b90612af4565b610a5c60198383612520565b336118e7611200565b6001600160a01b03161461190d5760405162461bcd60e51b815260040161092b90612af4565b6001600160a01b0381166119725760405162461bcd60e51b815260206004820152602660248201527f4f776e61626c653a206e6577206f776e657220697320746865207a65726f206160448201526564647265737360d01b606482015260840161092b565b61197b81611e15565b50565b60006001600160e01b031982166380ac58cd60e01b14806119af57506001600160e01b03198216635b5e139f60e01b145b806107c157506301ffc9a760e01b6001600160e01b03198316146107c1565b6000908152600860205260409020546001600160a01b0316151590565b6000818152600a6020526040902080546001600160a01b0319166001600160a01b0384169081179091558190611a2082611048565b6001600160a01b03167f8c5be1e5ebec7d5bd14f71427d1e84f3dd0314c0f7b2291e5b200ac8c7c3b92560405160405180910390a45050565b80471015611aa95760405162461bcd60e51b815260206004820152601d60248201527f416464726573733a20696e73756666696369656e742062616c616e6365000000604482015260640161092b565b6000826001600160a01b03168260405160006040518083038185875af1925050503d8060008114611af6576040519150601f19603f3d011682016040523d82523d6000602084013e611afb565b606091505b5050905080610a5c5760405162461bcd60e51b815260206004820152603a60248201527f416464726573733a20756e61626c6520746f2073656e642076616c75652c20726044820152791958da5c1a595b9d081b585e481a185d99481c995d995c9d195960321b606482015260840161092b565b6000611b7a826119ce565b611bdb5760405162461bcd60e51b815260206004820152602c60248201527f4552433732313a206f70657261746f7220717565727920666f72206e6f6e657860448201526b34b9ba32b73a103a37b5b2b760a11b606482015260840161092b565b6000611be683611048565b9050806001600160a01b0316846001600160a01b03161480611c215750836001600160a01b0316611c16846108c3565b6001600160a01b0316145b80611c315750611c318185611875565b949350505050565b826001600160a01b0316611c4c82611048565b6001600160a01b031614611cb45760405162461bcd60e51b815260206004820152602960248201527f4552433732313a207472616e73666572206f6620746f6b656e2074686174206960448201526839903737ba1037bbb760b91b606482015260840161092b565b6001600160a01b038216611d165760405162461bcd60e51b8152602060048201526024808201527f4552433732313a207472616e7366657220746f20746865207a65726f206164646044820152637265737360e01b606482015260840161092b565b611d2183838361200e565b611d2c6000826119eb565b6001600160a01b0383166000908152600960205260408120805460019290611d55908490612c2b565b90915550506001600160a01b0382166000908152600960205260408120805460019290611d83908490612be0565b909155505060008181526008602052604080822080546001600160a01b0319166001600160a01b0386811691821790925591518493918716917fddf252ad1be2c89b69c2b068fc378daa952ba7f163c4a11628f55a4df523b3ef91a4505050565b611dfe8282604051806020016040528060008152506120c6565b5050565b6000611e0e8284612be0565b9392505050565b600080546001600160a01b038381166001600160a01b0319831681178455604051919092169283917f8be0079c531659141344cd1fd0a4f28419497f9722a3daafe3b4186f6b6457e09190a35050565b6000611e0e8284612c2b565b611e7c848484611c39565b611e88848484846120f9565b6114a35760405162461bcd60e51b815260040161092b90612aa2565b6000611e0e8284612c0c565b611dfe8282604051602401611ec6929190612a80565b60408051601f198184030181529190526020810180516001600160e01b03166309710a9d60e41b179052612206565b606081611f195750506040805180820190915260018152600360fc1b602082015290565b8160005b8115611f435780611f2d81612ca9565b9150611f3c9050600a83612bf8565b9150611f1d565b6000816001600160401b03811115611f6b57634e487b7160e01b600052604160045260246000fd5b6040519080825280601f01601f191660200182016040528015611f95576020820181803683370190505b5090505b8415611c3157611faa600183612c2b565b9150611fb7600a86612cc4565b611fc2906030612be0565b60f81b818381518110611fe557634e487b7160e01b600052603260045260246000fd5b60200101906001600160f81b031916908160001a905350612007600a86612bf8565b9450611f99565b6001600160a01b0383166120695761206481600e80546000838152600f60205260408120829055600182018355919091527fbb7b4a454dc3493923482f07822329ed19e8244eff582cc204f8554c3620c3fd0155565b61208c565b816001600160a01b0316836001600160a01b03161461208c5761208c8382612227565b6001600160a01b0382166120a357610a5c816122c4565b826001600160a01b0316826001600160a01b031614610a5c57610a5c828261239d565b6120d083836123e1565b6120dd60008484846120f9565b610a5c5760405162461bcd60e51b815260040161092b90612aa2565b60006001600160a01b0384163b156121fb57604051630a85bd0160e11b81526001600160a01b0385169063150b7a029061213d903390899088908890600401612a30565b602060405180830381600087803b15801561215757600080fd5b505af1925050508015612187575060408051601f3d908101601f1916820190925261218491810190612857565b60015b6121e1573d8080156121b5576040519150601f19603f3d011682016040523d82523d6000602084013e6121ba565b606091505b5080516121d95760405162461bcd60e51b815260040161092b90612aa2565b805181602001fd5b6001600160e01b031916630a85bd0160e11b149050611c31565b506001949350505050565b80516a636f6e736f6c652e6c6f67602083016000808483855afa5050505050565b6000600161223484611100565b61223e9190612c2b565b6000838152600d6020526040902054909150808214612291576001600160a01b0384166000908152600c602090815260408083208584528252808320548484528184208190558352600d90915290208190555b506000918252600d602090815260408084208490556001600160a01b039094168352600c81528383209183525290812055565b600e546000906122d690600190612c2b565b6000838152600f6020526040812054600e805493945090928490811061230c57634e487b7160e01b600052603260045260246000fd5b9060005260206000200154905080600e838154811061233b57634e487b7160e01b600052603260045260246000fd5b6000918252602080832090910192909255828152600f9091526040808220849055858252812055600e80548061238157634e487b7160e01b600052603160045260246000fd5b6001900381819060005260206000200160009055905550505050565b60006123a883611100565b6001600160a01b039093166000908152600c602090815260408083208684528252808320859055938252600d9052919091209190915550565b6001600160a01b0382166124375760405162461bcd60e51b815260206004820181905260248201527f4552433732313a206d696e7420746f20746865207a65726f2061646472657373604482015260640161092b565b612440816119ce565b1561248d5760405162461bcd60e51b815260206004820152601c60248201527f4552433732313a20746f6b656e20616c7265616479206d696e74656400000000604482015260640161092b565b6124996000838361200e565b6001600160a01b03821660009081526009602052604081208054600192906124c2908490612be0565b909155505060008181526008602052604080822080546001600160a01b0319166001600160a01b03861690811790915590518392907fddf252ad1be2c89b69c2b068fc378daa952ba7f163c4a11628f55a4df523b3ef908290a45050565b82805461252c90612c6e565b90600052602060002090601f01602090048101928261254e5760008555612594565b82601f106125675782800160ff19823516178555612594565b82800160010185558215612594579182015b82811115612594578235825591602001919060010190612579565b506125a0929150612618565b5090565b8280546125b090612c6e565b90600052602060002090601f0160209004810192826125d25760008555612594565b82601f106125eb57805160ff1916838001178555612594565b82800160010185558215612594579182015b828111156125945782518255916020019190600101906125fd565b5b808211156125a05760008155600101612619565b60008083601f84011261263e578182fd5b5081356001600160401b03811115612654578182fd5b60208301915083602082850101111561266c57600080fd5b9250929050565b600060208284031215612684578081fd5b8135611e0e81612d1a565b600080604083850312156126a1578081fd5b82356126ac81612d1a565b915060208301356126bc81612d1a565b809150509250929050565b6000806000606084860312156126db578081fd5b83356126e681612d1a565b925060208401356126f681612d1a565b929592945050506040919091013590565b6000806000806080858703121561271c578081fd5b843561272781612d1a565b9350602085013561273781612d1a565b92506040850135915060608501356001600160401b0380821115612759578283fd5b818701915087601f83011261276c578283fd5b81358181111561277e5761277e612d04565b604051601f8201601f19908116603f011681019083821181831017156127a6576127a6612d04565b816040528281528a60208487010111156127be578586fd5b82602086016020830137918201602001949094529598949750929550505050565b600080604083850312156127f1578182fd5b82356127fc81612d1a565b9150602083013580151581146126bc578182fd5b60008060408385031215612822578182fd5b823561282d81612d1a565b946020939093013593505050565b60006020828403121561284c578081fd5b8135611e0e81612d2f565b600060208284031215612868578081fd5b8151611e0e81612d2f565b60008060208385031215612885578182fd5b82356001600160401b0381111561289a578283fd5b6128a68582860161262d565b90969095509350505050565b60008060008060008060a087890312156128ca578182fd5b86356001600160401b038111156128df578283fd5b6128eb89828a0161262d565b909a90995060208901359860408101359850606081013597506080013595509350505050565b600060208284031215612922578081fd5b5035919050565b60008151808452612941816020860160208601612c42565b601f01601f19169290920160200192915050565b60008151612967818560208601612c42565b9290920192915050565b600080845482600182811c91508083168061298d57607f831692505b60208084108214156129ad57634e487b7160e01b87526022600452602487fd5b8180156129c157600181146129d2576129fe565b60ff198616895284890196506129fe565b60008b815260209020885b868110156129f65781548b8201529085019083016129dd565b505084890196505b505050505050612a0e8185612955565b95945050505050565b6001600160a01b03929092168252602082015260400190565b6001600160a01b0385811682528416602082015260408101839052608060608201819052600090612a6390830184612929565b9695505050505050565b602081526000611e0e6020830184612929565b604081526000612a936040830185612929565b90508260208301529392505050565b60208082526032908201527f4552433732313a207472616e7366657220746f206e6f6e20455243373231526560408201527131b2b4bb32b91034b6b83632b6b2b73a32b960711b606082015260800190565b6020808252818101527f4f776e61626c653a2063616c6c6572206973206e6f7420746865206f776e6572604082015260600190565b60208082526031908201527f4552433732313a207472616e736665722063616c6c6572206973206e6f74206f6040820152701ddb995c881b9bdc88185c1c1c9bdd9959607a1b606082015260800190565b602081526000825160806020840152612b9660a0840182612929565b90506020840151601f19848303016040850152612bb38282612929565b915050604084015163ffffffff808216606086015280606087015116608086015250508091505092915050565b60008219821115612bf357612bf3612cd8565b500190565b600082612c0757612c07612cee565b500490565b6000816000190483118215151615612c2657612c26612cd8565b500290565b600082821015612c3d57612c3d612cd8565b500390565b60005b83811015612c5d578181015183820152602001612c45565b838111156114a35750506000910152565b600181811c90821680612c8257607f821691505b60208210811415612ca357634e487b7160e01b600052602260045260246000fd5b50919050565b6000600019821415612cbd57612cbd612cd8565b5060010190565b600082612cd357612cd3612cee565b500690565b634e487b7160e01b600052601160045260246000fd5b634e487b7160e01b600052601260045260246000fd5b634e487b7160e01b600052604160045260246000fd5b6001600160a01b038116811461197b57600080fd5b6001600160e01b03198116811461197b57600080fdfea26469706673582212206a2b0115953a298deda4e8337ce49b0a460031cb81f3c6973ce9f13a4935ca8e64736f6c63430008040033a2646970667358221220ad8826072e245738616793b7ea687747114352c4705e76c9dac850627353492364736f6c63430008040033",
  "devdoc": {
    "kind": "dev",
    "methods": {
      "owner()": {
        "details": "Returns the address of the current owner."
      },
      "renounceOwnership()": {
        "details": "Leaves the contract without owner. It will not be possible to call `onlyOwner` functions anymore. Can only be called by the current owner. NOTE: Renouncing ownership will leave the contract without an owner, thereby removing any functionality that is only available to the owner."
      },
      "transferOwnership(address)": {
        "details": "Transfers ownership of the contract to a new account (`newOwner`). Can only be called by the current owner."
      }
    },
    "version": 1
  },
  "userdoc": {
    "kind": "user",
    "methods": {},
    "version": 1
  },
  "storageLayout": {
    "storage": [
      {
        "astId": 7,
        "contract": "contracts/Generator/NFTBlindBoxGenerator.sol:NFTBlindboxGenerator",
        "label": "_owner",
        "offset": 0,
        "slot": "0",
        "type": "t_address"
      },
      {
        "astId": 3989,
        "contract": "contracts/Generator/NFTBlindBoxGenerator.sol:NFTBlindboxGenerator",
        "label": "adminAddr",
        "offset": 0,
        "slot": "1",
        "type": "t_address"
      },
      {
        "astId": 3992,
        "contract": "contracts/Generator/NFTBlindBoxGenerator.sol:NFTBlindboxGenerator",
        "label": "slottingFee",
        "offset": 0,
        "slot": "2",
        "type": "t_uint256"
      }
    ],
    "types": {
      "t_address": {
        "encoding": "inplace",
        "label": "address",
        "numberOfBytes": "20"
      },
      "t_uint256": {
        "encoding": "inplace",
        "label": "uint256",
        "numberOfBytes": "32"
      }
    }
  }
}