{
  "address": "0x5FC8d32690cc91D4c39d9d3abcBD16989F875707",
  "abi": [
    {
      "inputs": [
        {
          "internalType": "address",
          "name": "adminAddr_",
          "type": "address"
        },
        {
          "internalType": "uint256",
          "name": "slottingFee_",
          "type": "uint256"
        }
      ],
      "stateMutability": "nonpayable",
      "type": "constructor"
    },
    {
      "anonymous": false,
      "inputs": [
        {
          "indexed": true,
          "internalType": "address",
          "name": "previousOwner",
          "type": "address"
        },
        {
          "indexed": true,
          "internalType": "address",
          "name": "newOwner",
          "type": "address"
        }
      ],
      "name": "OwnershipTransferred",
      "type": "event"
    },
    {
      "inputs": [],
      "name": "adminAddr",
      "outputs": [
        {
          "internalType": "address",
          "name": "",
          "type": "address"
        }
      ],
      "stateMutability": "view",
      "type": "function"
    },
    {
      "inputs": [
        {
          "internalType": "uint256",
          "name": "newSlottingFee",
          "type": "uint256"
        }
      ],
      "name": "changeSlottingFee",
      "outputs": [],
      "stateMutability": "nonpayable",
      "type": "function"
    },
    {
      "inputs": [
        {
          "internalType": "address",
          "name": "client",
          "type": "address"
        },
        {
          "components": [
            {
              "internalType": "string",
              "name": "name",
              "type": "string"
            },
            {
              "internalType": "string",
              "name": "symbol",
              "type": "string"
            },
            {
              "internalType": "address[]",
              "name": "payees",
              "type": "address[]"
            },
            {
              "internalType": "uint256[]",
              "name": "shares",
              "type": "uint256[]"
            },
            {
              "internalType": "uint32",
              "name": "typeOfNFT",
              "type": "uint32"
            },
            {
              "internalType": "uint32",
              "name": "maxSupply",
              "type": "uint32"
            }
          ],
          "internalType": "struct BaseSettings",
          "name": "baseSettings",
          "type": "tuple"
        }
      ],
      "name": "genNFTContract",
      "outputs": [
        {
          "internalType": "address",
          "name": "",
          "type": "address"
        }
      ],
      "stateMutability": "nonpayable",
      "type": "function"
    },
    {
      "inputs": [],
      "name": "owner",
      "outputs": [
        {
          "internalType": "address",
          "name": "",
          "type": "address"
        }
      ],
      "stateMutability": "view",
      "type": "function"
    },
    {
      "inputs": [],
      "name": "renounceOwnership",
      "outputs": [],
      "stateMutability": "nonpayable",
      "type": "function"
    },
    {
      "inputs": [],
      "name": "slottingFee",
      "outputs": [
        {
          "internalType": "uint256",
          "name": "",
          "type": "uint256"
        }
      ],
      "stateMutability": "view",
      "type": "function"
    },
    {
      "inputs": [
        {
          "internalType": "address",
          "name": "newOwner",
          "type": "address"
        }
      ],
      "name": "transferOwnership",
      "outputs": [],
      "stateMutability": "nonpayable",
      "type": "function"
    }
  ],
  "transactionHash": "0x81553d241edd665ce1ffeacd94d7b28a77d33a611d03b00a5002a33d3e2a2122",
  "args": [
    "0x5FbDB2315678afecb367f032d93F642f64180aa3",
    "300000000000000000"
  ],
  "solcInputHash": "54ce23edfdc18f9daaba9275d15b794a",
  "bytecode": "0x608060405234801561001057600080fd5b50604051613b60380380613b6083398101604081905261002f916100b6565b818161003a33610066565b600180546001600160a01b0319166001600160a01b039390931692909217909155600255506100ee9050565b600080546001600160a01b038381166001600160a01b0319831681178455604051919092169283917f8be0079c531659141344cd1fd0a4f28419497f9722a3daafe3b4186f6b6457e09190a35050565b600080604083850312156100c8578182fd5b82516001600160a01b03811681146100de578283fd5b6020939093015192949293505050565b613a63806100fd6000396000f3fe60806040523480156200001157600080fd5b5060043610620000765760003560e01c8063715018a6146200007b5780638183059314620000875780638da5cb5b14620000b3578063a4a3578a14620000bd578063e962371314620000d4578063ea88a3b814620000eb578063f2fde38b1462000104575b600080fd5b620000856200011b565b005b6001546200009b906001600160a01b031681565b604051620000aa9190620006f5565b60405180910390f35b6200009b62000166565b62000085620000ce36600462000630565b62000175565b6200009b620000e5366004620005d7565b62000209565b620000f560025481565b604051908152602001620000aa565b620000856200011536600462000592565b62000374565b336200012662000166565b6001600160a01b031614620001585760405162461bcd60e51b81526004016200014f9062000798565b60405180910390fd5b6200016460006200041d565b565b6000546001600160a01b031690565b336200018062000166565b6001600160a01b031614620001a95760405162461bcd60e51b81526004016200014f9062000798565b6200020460405180604001604052806018815260200177736c6f7474696e6720666565206368616e67652066726f6d60401b8152506002546040518060400160405280600381526020016220746f60e81b815250846200046d565b600255565b6001546000906001600160a01b0316336001600160a01b0316146200022d57600080fd5b60006200023a83620004c0565b60405163f2fde38b60e01b815290915081906001600160a01b0382169063f2fde38b906200026d908890600401620006f5565b600060405180830381600087803b1580156200028857600080fd5b505af11580156200029d573d6000803e3d6000fd5b505050506200036c6040518060400160405280601081526020016f27232a1021b7b73a3930b1ba1030ba1d60811b81525082604051806040016040528060078152602001661027bbb732b91d60c91b815250846001600160a01b0316638da5cb5b6040518163ffffffff1660e01b8152600401602060405180830381600087803b1580156200032b57600080fd5b505af115801562000340573d6000803e3d6000fd5b505050506040513d601f19601f82011682018060405250810190620003669190620005b8565b62000501565b509392505050565b336200037f62000166565b6001600160a01b031614620003a85760405162461bcd60e51b81526004016200014f9062000798565b6001600160a01b0381166200040f5760405162461bcd60e51b815260206004820152602660248201527f4f776e61626c653a206e6577206f776e657220697320746865207a65726f206160448201526564647265737360d01b60648201526084016200014f565b6200041a816200041d565b50565b600080546001600160a01b038381166001600160a01b0319831681178455604051919092169283917f8be0079c531659141344cd1fd0a4f28419497f9722a3daafe3b4186f6b6457e09190a35050565b620004ba848484846040516024016200048a949392919062000757565b60408051601f198184030181529190526020810180516001600160e01b031663a0c4b22560e01b17905262000549565b50505050565b600081604051620004d1906200056a565b620004dd9190620007cd565b604051809103906000f080158015620004fa573d6000803e3d6000fd5b5092915050565b620004ba848484846040516024016200051e949392919062000709565b60408051601f198184030181529190526020810180516001600160e01b031663aabc9a3160e01b1790525b80516a636f6e736f6c652e6c6f67602083016000808483855afa5050505050565b613091806200099d83390190565b803563ffffffff811681146200058d57600080fd5b919050565b600060208284031215620005a4578081fd5b8135620005b18162000986565b9392505050565b600060208284031215620005ca578081fd5b8151620005b18162000986565b60008060408385031215620005ea578081fd5b8235620005f78162000986565b9150602083013567ffffffffffffffff81111562000613578182fd5b830160c0818603121562000625578182fd5b809150509250929050565b60006020828403121562000642578081fd5b5035919050565b81835260006001600160fb1b0383111562000662578081fd5b8260051b80836020870137939093016020019283525090919050565b81835281816020850137506000828201602090810191909152601f909101601f19169091010190565b60008151808452815b81811015620006ce57602081850181015186830182015201620006b0565b81811115620006e05782602083870101525b50601f01601f19169290920160200192915050565b6001600160a01b0391909116815260200190565b6080815260006200071e6080830187620006a7565b6001600160a01b0386811660208501528382036040850152620007428287620006a7565b92508085166060850152505095945050505050565b6080815260006200076c6080830187620006a7565b8560208401528281036040840152620007868186620006a7565b91505082606083015295945050505050565b6020808252818101527f4f776e61626c653a2063616c6c6572206973206e6f7420746865206f776e6572604082015260600190565b60006020808352620007e084856200093e565b60c083860152620007f660e0860182846200067e565b91505062000807828601866200093e565b601f1980878503016040880152620008218483856200067e565b9350620008326040890189620008ec565b888603830160608a0152808652909490935086925085015b838310156200087e578435620008608162000986565b6001600160a01b03168152938501936001929092019185016200084a565b6200088d60608a018a620008ec565b9650945081888203016080890152620008a881878762000649565b95505050505050620008bd6080850162000578565b63ffffffff811660a085015250620008d860a0850162000578565b63ffffffff811660c0850152509392505050565b6000808335601e1984360301811262000903578283fd5b830160208101925035905067ffffffffffffffff8111156200092457600080fd5b8060051b36038313156200093757600080fd5b9250929050565b6000808335601e1984360301811262000955578283fd5b830160208101925035905067ffffffffffffffff8111156200097657600080fd5b8036038313156200093757600080fd5b6001600160a01b03811681146200041a57600080fdfe60806040523480156200001157600080fd5b506040516200309138038062003091833981016040819052620000349162000690565b608081015160a082015182516020840151604085015160608601516200005a3362000212565b8051825114620000cc5760405162461bcd60e51b815260206004820152603260248201527f5061796d656e7453706c69747465723a2070617965657320616e6420736861726044820152710cae640d8cadccee8d040dad2e6dac2e8c6d60731b60648201526084015b60405180910390fd5b60008251116200011f5760405162461bcd60e51b815260206004820152601a60248201527f5061796d656e7453706c69747465723a206e6f207061796565730000000000006044820152606401620000c3565b60005b8251811015620001a3576200018e8382815181106200015157634e487b7160e01b600052603260045260246000fd5b60200260200101518383815181106200017a57634e487b7160e01b600052603260045260246000fd5b60200260200101516200026260201b60201c565b806200019a8162000874565b91505062000122565b50508251620001bb915060069060208501906200044f565b508051620001d19060079060208401906200044f565b50506012805463ffffffff938416640100000000026001600160401b0319909116939094169290921792909217905550506014805460ff19169055620008be565b600080546001600160a01b038381166001600160a01b0319831681178455604051919092169283917f8be0079c531659141344cd1fd0a4f28419497f9722a3daafe3b4186f6b6457e09190a35050565b6001600160a01b038216620002cf5760405162461bcd60e51b815260206004820152602c60248201527f5061796d656e7453706c69747465723a206163636f756e74206973207468652060448201526b7a65726f206164647265737360a01b6064820152608401620000c3565b60008111620003215760405162461bcd60e51b815260206004820152601d60248201527f5061796d656e7453706c69747465723a207368617265732061726520300000006044820152606401620000c3565b6001600160a01b038216600090815260036020526040902054156200039d5760405162461bcd60e51b815260206004820152602b60248201527f5061796d656e7453706c69747465723a206163636f756e7420616c726561647960448201526a206861732073686172657360a81b6064820152608401620000c3565b6005805460018082019092557f036b6384b5eca791c62761152d0c79bb0604c104a5fb6f4eb0703f3154bb3db00180546001600160a01b0319166001600160a01b038516908117909155600090815260036020526040902082905554620004069082906200081c565b600155604080516001600160a01b0384168152602081018390527f40c340f65e17194d14ddddb073d3c9f888e3cb52b5aae0c6c7706b4fbc905fac910160405180910390a15050565b8280546200045d9062000837565b90600052602060002090601f016020900481019282620004815760008555620004cc565b82601f106200049c57805160ff1916838001178555620004cc565b82800160010185558215620004cc579182015b82811115620004cc578251825591602001919060010190620004af565b50620004da929150620004de565b5090565b5b80821115620004da5760008155600101620004df565b600082601f83011262000506578081fd5b815160206200051f6200051983620007f6565b620007c3565b80838252828201915082860187848660051b89010111156200053f578586fd5b855b85811015620005745781516001600160a01b038116811462000561578788fd5b8452928401929084019060010162000541565b5090979650505050505050565b600082601f83011262000592578081fd5b81516020620005a56200051983620007f6565b80838252828201915082860187848660051b8901011115620005c5578586fd5b855b858110156200057457815184529284019290840190600101620005c7565b600082601f830112620005f6578081fd5b81516001600160401b03811115620006125762000612620008a8565b602062000628601f8301601f19168201620007c3565b82815285828487010111156200063c578384fd5b835b838110156200065b5785810183015182820184015282016200063e565b838111156200066c57848385840101525b5095945050505050565b805163ffffffff811681146200068b57600080fd5b919050565b600060208284031215620006a2578081fd5b81516001600160401b0380821115620006b9578283fd5b9083019060c08286031215620006cd578283fd5b620006d762000798565b825182811115620006e6578485fd5b620006f487828601620005e5565b82525060208301518281111562000709578485fd5b6200071787828601620005e5565b6020830152506040830151828111156200072f578485fd5b6200073d87828601620004f5565b60408301525060608301518281111562000755578485fd5b620007638782860162000581565b606083015250620007776080840162000676565b60808201526200078a60a0840162000676565b60a082015295945050505050565b60405160c081016001600160401b0381118282101715620007bd57620007bd620008a8565b60405290565b604051601f8201601f191681016001600160401b0381118282101715620007ee57620007ee620008a8565b604052919050565b60006001600160401b03821115620008125762000812620008a8565b5060051b60200190565b6000821982111562000832576200083262000892565b500190565b600181811c908216806200084c57607f821691505b602082108114156200086e57634e487b7160e01b600052602260045260246000fd5b50919050565b60006000198214156200088b576200088b62000892565b5060010190565b634e487b7160e01b600052601160045260246000fd5b634e487b7160e01b600052604160045260246000fd5b6127c380620008ce6000396000f3fe6080604052600436106101d35760003560e01c80638b83209b116100f8578063b145a5b811610090578063b145a5b81461055e578063b88d4fde14610578578063c87b56dd14610598578063ce7c2ac2146105b8578063d5abeb01146105ee578063e33b7de314610627578063e3906f911461063c578063e985e9c514610659578063f2fde38b1461067957600080fd5b80638b83209b146104525780638da5cb5b14610472578063943445a21461048757806395d89b41146104a7578063977b055b146104bc578063977d08c0146104d25780639852595c146104f2578063a22cb46514610528578063ab0bcc411461054857600080fd5b80633a98ef391161016b5780633a98ef391461036a57806342842e0e1461037f5780634f6ccce71461039f5780635edd1b68146103bf5780636352211e146103d25780636c0360eb146103f257806370a0823114610407578063715018a6146104275780637ff9b5961461043c57600080fd5b806301ffc9a714610218578063042b30951461024d57806306fdde031461026f578063081812fc14610291578063095ea7b3146102c957806318160ddd146102eb578063191655871461030a57806323b872dd1461032a5780632f745c591461034a57600080fd5b36610213577f6ef95f06320e7a25a04a175ca677b7052bdd97131872c2192525a629f51be770333460405161020992919061240f565b60405180910390a1005b600080fd5b34801561022457600080fd5b50610238610233366004612258565b610699565b60405190151581526020015b60405180910390f35b34801561025957600080fd5b506102626106c4565b60405161024491906125c2565b34801561027b57600080fd5b5061028461072e565b6040516102449190612465565b34801561029d57600080fd5b506102b16102ac366004612309565b6107c0565b6040516001600160a01b039091168152602001610244565b3480156102d557600080fd5b506102e96102e43660046121be565b61084d565b005b3480156102f757600080fd5b50600e545b604051908152602001610244565b34801561031657600080fd5b506102e961032536600461201a565b61095e565b34801561033657600080fd5b506102e9610345366004612075565b610b26565b34801561035657600080fd5b506102fc6103653660046121be565b610b57565b34801561037657600080fd5b506001546102fc565b34801561038b57600080fd5b506102e961039a366004612075565b610bed565b3480156103ab57600080fd5b506102fc6103ba366004612309565b610c08565b6102e96103cd3660046121e9565b610ca9565b3480156103de57600080fd5b506102b16103ed366004612309565b610e04565b3480156103fe57600080fd5b50610284610e7b565b34801561041357600080fd5b506102fc61042236600461201a565b610f09565b34801561043357600080fd5b506102e9610f90565b34801561044857600080fd5b506102fc60155481565b34801561045e57600080fd5b506102b161046d366004612309565b610fcb565b34801561047e57600080fd5b506102b1611009565b34801561049357600080fd5b506102e96104a23660046121e9565b611018565b3480156104b357600080fd5b50610284611157565b3480156104c857600080fd5b506102fc60115481565b3480156104de57600080fd5b506102e96104ed366004612290565b611166565b3480156104fe57600080fd5b506102fc61050d36600461201a565b6001600160a01b031660009081526004602052604090205490565b34801561053457600080fd5b506102e961054336600461218d565b611208565b34801561055457600080fd5b506102fc60105481565b34801561056a57600080fd5b506014546102389060ff1681565b34801561058457600080fd5b506102e96105933660046120b5565b6112c9565b3480156105a457600080fd5b506102846105b3366004612309565b611301565b3480156105c457600080fd5b506102fc6105d336600461201a565b6001600160a01b031660009081526003602052604090205490565b3480156105fa57600080fd5b5060125461061290600160201b900463ffffffff1681565b60405163ffffffff9091168152602001610244565b34801561063357600080fd5b506002546102fc565b34801561064857600080fd5b506012546106129063ffffffff1681565b34801561066557600080fd5b5061023861067436600461203d565b6113a2565b34801561068557600080fd5b506102e961069436600461201a565b6113d0565b60006001600160e01b0319821663780e9d6360e01b14806106be57506106be82611470565b92915050565b60408051608081018252606080825260208201819052600092820183905281019190915260405180608001604052806106fb61072e565b8152602001610708611157565b815260125463ffffffff8082166020840152600160201b90910416604090910152919050565b60606006805461073d906126b6565b80601f0160208091040260200160405190810160405280929190818152602001828054610769906126b6565b80156107b65780601f1061078b576101008083540402835291602001916107b6565b820191906000526020600020905b81548152906001019060200180831161079957829003601f168201915b5050505050905090565b60006107cb826114c0565b6108315760405162461bcd60e51b815260206004820152602c60248201527f4552433732313a20617070726f76656420717565727920666f72206e6f6e657860448201526b34b9ba32b73a103a37b5b2b760a11b60648201526084015b60405180910390fd5b506000908152600a60205260409020546001600160a01b031690565b600061085882610e04565b9050806001600160a01b0316836001600160a01b031614156108c65760405162461bcd60e51b815260206004820152602160248201527f4552433732313a20617070726f76616c20746f2063757272656e74206f776e656044820152603960f91b6064820152608401610828565b336001600160a01b03821614806108e257506108e281336113a2565b61094f5760405162461bcd60e51b815260206004820152603860248201527f4552433732313a20617070726f76652063616c6c6572206973206e6f74206f776044820152771b995c881b9bdc88185c1c1c9bdd995908199bdc88185b1b60421b6064820152608401610828565b61095983836114dd565b505050565b6001600160a01b0381166000908152600360205260409020546109d25760405162461bcd60e51b815260206004820152602660248201527f5061796d656e7453706c69747465723a206163636f756e7420686173206e6f2060448201526573686172657360d01b6064820152608401610828565b6000600254476109e29190612628565b6001600160a01b0383166000908152600460209081526040808320546001546003909352908320549394509192610a199085612654565b610a239190612640565b610a2d9190612673565b905080610a905760405162461bcd60e51b815260206004820152602b60248201527f5061796d656e7453706c69747465723a206163636f756e74206973206e6f742060448201526a191d59481c185e5b595b9d60aa1b6064820152608401610828565b6001600160a01b038316600090815260046020526040902054610ab4908290612628565b6001600160a01b038416600090815260046020526040902055600254610adb908290612628565b600255610ae8838261154b565b7fdf20fd1e76bc69d672e4814fafb2c449bba3a5369d8359adf9e05e6fde87b0568382604051610b1992919061240f565b60405180910390a1505050565b610b303382611661565b610b4c5760405162461bcd60e51b815260040161082890612571565b61095983838361172b565b6000610b6283610f09565b8210610bc45760405162461bcd60e51b815260206004820152602b60248201527f455243373231456e756d657261626c653a206f776e657220696e646578206f7560448201526a74206f6620626f756e647360a81b6064820152608401610828565b506001600160a01b03919091166000908152600c60209081526040808320938352929052205490565b610959838383604051806020016040528060008152506112c9565b6000610c13600e5490565b8210610c765760405162461bcd60e51b815260206004820152602c60248201527f455243373231456e756d657261626c653a20676c6f62616c20696e646578206f60448201526b7574206f6620626f756e647360a01b6064820152608401610828565b600e8281548110610c9757634e487b7160e01b600052603260045260246000fd5b90600052602060002001549050919050565b6015543490610cb9908390612654565b1115610d075760405162461bcd60e51b815260206004820152601f60248201527f45746865722076616c75652073656e74206973206e6f7420636f7272656374006044820152606401610828565b6010544211610d585760405162461bcd60e51b815260206004820152601e60248201527f4e465447616c6c6572793a2073616c65206e6f742073746172742079657400006044820152606401610828565b60005b81811015610959576000838383818110610d8557634e487b7160e01b600052603260045260246000fd5b6012546020909102929092013592505063ffffffff600160201b909104168110610dc15760405162461bcd60e51b8152600401610828906124ca565b610dca816114c0565b15610de75760405162461bcd60e51b8152600401610828906124fa565b610df133826118d6565b5080610dfc816126f1565b915050610d5b565b6000818152600860205260408120546001600160a01b0316806106be5760405162461bcd60e51b815260206004820152602960248201527f4552433732313a206f776e657220717565727920666f72206e6f6e657869737460448201526832b73a103a37b5b2b760b91b6064820152608401610828565b60138054610e88906126b6565b80601f0160208091040260200160405190810160405280929190818152602001828054610eb4906126b6565b8015610f015780601f10610ed657610100808354040283529160200191610f01565b820191906000526020600020905b815481529060010190602001808311610ee457829003601f168201915b505050505081565b60006001600160a01b038216610f745760405162461bcd60e51b815260206004820152602a60248201527f4552433732313a2062616c616e636520717565727920666f7220746865207a65604482015269726f206164647265737360b01b6064820152608401610828565b506001600160a01b031660009081526009602052604090205490565b33610f99611009565b6001600160a01b031614610fbf5760405162461bcd60e51b81526004016108289061253c565b610fc960006118f4565b565b600060058281548110610fee57634e487b7160e01b600052603260045260246000fd5b6000918252602090912001546001600160a01b031692915050565b6000546001600160a01b031690565b33611021611009565b6001600160a01b0316146110475760405162461bcd60e51b81526004016108289061253c565b60105442106110ab5760405162461bcd60e51b815260206004820152602a60248201527f4e465447616c6c6572793a207265736561727665206f6e6c79206265666f7265604482015269081cd85b1954dd185c9d60b21b6064820152608401610828565b60005b818110156109595760008383838181106110d857634e487b7160e01b600052603260045260246000fd5b6012546020909102929092013592505063ffffffff600160201b9091041681106111145760405162461bcd60e51b8152600401610828906124ca565b61111d816114c0565b1561113a5760405162461bcd60e51b8152600401610828906124fa565b61114433826118d6565b508061114f816126f1565b9150506110ae565b60606007805461073d906126b6565b3361116f611009565b6001600160a01b0316146111955760405162461bcd60e51b81526004016108289061253c565b60145460ff16156111e15760405162461bcd60e51b815260206004820152601660248201527574656d706c6174653a20696e697420616c726561647960501b6044820152606401610828565b6014805460ff1916600117905560158290556111ff60138585611f81565b50601055505050565b6001600160a01b03821633141561125d5760405162461bcd60e51b815260206004820152601960248201527822a9219b99189d1030b8383937bb32903a379031b0b63632b960391b6044820152606401610828565b336000818152600b602090815260408083206001600160a01b03871680855290835292819020805460ff191686151590811790915590519081529192917f17307eab39ab6107e8899845ad3d59bd9653f200f220920489ca2b5937696c31910160405180910390a35050565b6112d33383611661565b6112ef5760405162461bcd60e51b815260040161082890612571565b6112fb84848484611944565b50505050565b606061130c826114c0565b6113705760405162461bcd60e51b815260206004820152602f60248201527f4552433732314d657461646174613a2055524920717565727920666f72206e6f60448201526e3732bc34b9ba32b73a103a37b5b2b760891b6064820152608401610828565b601361137b83611977565b60405160200161138c929190612369565b6040516020818303038152906040529050919050565b6001600160a01b039182166000908152600b6020908152604080832093909416825291909152205460ff1690565b336113d9611009565b6001600160a01b0316146113ff5760405162461bcd60e51b81526004016108289061253c565b6001600160a01b0381166114645760405162461bcd60e51b815260206004820152602660248201527f4f776e61626c653a206e6577206f776e657220697320746865207a65726f206160448201526564647265737360d01b6064820152608401610828565b61146d816118f4565b50565b60006001600160e01b031982166380ac58cd60e01b14806114a157506001600160e01b03198216635b5e139f60e01b145b806106be57506301ffc9a760e01b6001600160e01b03198316146106be565b6000908152600860205260409020546001600160a01b0316151590565b6000818152600a6020526040902080546001600160a01b0319166001600160a01b038416908117909155819061151282610e04565b6001600160a01b03167f8c5be1e5ebec7d5bd14f71427d1e84f3dd0314c0f7b2291e5b200ac8c7c3b92560405160405180910390a45050565b8047101561159b5760405162461bcd60e51b815260206004820152601d60248201527f416464726573733a20696e73756666696369656e742062616c616e63650000006044820152606401610828565b6000826001600160a01b03168260405160006040518083038185875af1925050503d80600081146115e8576040519150601f19603f3d011682016040523d82523d6000602084013e6115ed565b606091505b50509050806109595760405162461bcd60e51b815260206004820152603a60248201527f416464726573733a20756e61626c6520746f2073656e642076616c75652c20726044820152791958da5c1a595b9d081b585e481a185d99481c995d995c9d195960321b6064820152608401610828565b600061166c826114c0565b6116cd5760405162461bcd60e51b815260206004820152602c60248201527f4552433732313a206f70657261746f7220717565727920666f72206e6f6e657860448201526b34b9ba32b73a103a37b5b2b760a11b6064820152608401610828565b60006116d883610e04565b9050806001600160a01b0316846001600160a01b031614806117135750836001600160a01b0316611708846107c0565b6001600160a01b0316145b80611723575061172381856113a2565b949350505050565b826001600160a01b031661173e82610e04565b6001600160a01b0316146117a65760405162461bcd60e51b815260206004820152602960248201527f4552433732313a207472616e73666572206f6620746f6b656e2074686174206960448201526839903737ba1037bbb760b91b6064820152608401610828565b6001600160a01b0382166118085760405162461bcd60e51b8152602060048201526024808201527f4552433732313a207472616e7366657220746f20746865207a65726f206164646044820152637265737360e01b6064820152608401610828565b611813838383611a90565b61181e6000826114dd565b6001600160a01b0383166000908152600960205260408120805460019290611847908490612673565b90915550506001600160a01b0382166000908152600960205260408120805460019290611875908490612628565b909155505060008181526008602052604080822080546001600160a01b0319166001600160a01b0386811691821790925591518493918716917fddf252ad1be2c89b69c2b068fc378daa952ba7f163c4a11628f55a4df523b3ef91a4505050565b6118f0828260405180602001604052806000815250611b48565b5050565b600080546001600160a01b038381166001600160a01b0319831681178455604051919092169283917f8be0079c531659141344cd1fd0a4f28419497f9722a3daafe3b4186f6b6457e09190a35050565b61194f84848461172b565b61195b84848484611b7b565b6112fb5760405162461bcd60e51b815260040161082890612478565b60608161199b5750506040805180820190915260018152600360fc1b602082015290565b8160005b81156119c557806119af816126f1565b91506119be9050600a83612640565b915061199f565b6000816001600160401b038111156119ed57634e487b7160e01b600052604160045260246000fd5b6040519080825280601f01601f191660200182016040528015611a17576020820181803683370190505b5090505b841561172357611a2c600183612673565b9150611a39600a8661270c565b611a44906030612628565b60f81b818381518110611a6757634e487b7160e01b600052603260045260246000fd5b60200101906001600160f81b031916908160001a905350611a89600a86612640565b9450611a1b565b6001600160a01b038316611aeb57611ae681600e80546000838152600f60205260408120829055600182018355919091527fbb7b4a454dc3493923482f07822329ed19e8244eff582cc204f8554c3620c3fd0155565b611b0e565b816001600160a01b0316836001600160a01b031614611b0e57611b0e8382611c88565b6001600160a01b038216611b255761095981611d25565b826001600160a01b0316826001600160a01b031614610959576109598282611dfe565b611b528383611e42565b611b5f6000848484611b7b565b6109595760405162461bcd60e51b815260040161082890612478565b60006001600160a01b0384163b15611c7d57604051630a85bd0160e11b81526001600160a01b0385169063150b7a0290611bbf903390899088908890600401612428565b602060405180830381600087803b158015611bd957600080fd5b505af1925050508015611c09575060408051601f3d908101601f19168201909252611c0691810190612274565b60015b611c63573d808015611c37576040519150601f19603f3d011682016040523d82523d6000602084013e611c3c565b606091505b508051611c5b5760405162461bcd60e51b815260040161082890612478565b805181602001fd5b6001600160e01b031916630a85bd0160e11b149050611723565b506001949350505050565b60006001611c9584610f09565b611c9f9190612673565b6000838152600d6020526040902054909150808214611cf2576001600160a01b0384166000908152600c602090815260408083208584528252808320548484528184208190558352600d90915290208190555b506000918252600d602090815260408084208490556001600160a01b039094168352600c81528383209183525290812055565b600e54600090611d3790600190612673565b6000838152600f6020526040812054600e8054939450909284908110611d6d57634e487b7160e01b600052603260045260246000fd5b9060005260206000200154905080600e8381548110611d9c57634e487b7160e01b600052603260045260246000fd5b6000918252602080832090910192909255828152600f9091526040808220849055858252812055600e805480611de257634e487b7160e01b600052603160045260246000fd5b6001900381819060005260206000200160009055905550505050565b6000611e0983610f09565b6001600160a01b039093166000908152600c602090815260408083208684528252808320859055938252600d9052919091209190915550565b6001600160a01b038216611e985760405162461bcd60e51b815260206004820181905260248201527f4552433732313a206d696e7420746f20746865207a65726f20616464726573736044820152606401610828565b611ea1816114c0565b15611eee5760405162461bcd60e51b815260206004820152601c60248201527f4552433732313a20746f6b656e20616c7265616479206d696e746564000000006044820152606401610828565b611efa60008383611a90565b6001600160a01b0382166000908152600960205260408120805460019290611f23908490612628565b909155505060008181526008602052604080822080546001600160a01b0319166001600160a01b03861690811790915590518392907fddf252ad1be2c89b69c2b068fc378daa952ba7f163c4a11628f55a4df523b3ef908290a45050565b828054611f8d906126b6565b90600052602060002090601f016020900481019282611faf5760008555611ff5565b82601f10611fc85782800160ff19823516178555611ff5565b82800160010185558215611ff5579182015b82811115611ff5578235825591602001919060010190611fda565b50612001929150612005565b5090565b5b808211156120015760008155600101612006565b60006020828403121561202b578081fd5b813561203681612762565b9392505050565b6000806040838503121561204f578081fd5b823561205a81612762565b9150602083013561206a81612762565b809150509250929050565b600080600060608486031215612089578081fd5b833561209481612762565b925060208401356120a481612762565b929592945050506040919091013590565b600080600080608085870312156120ca578081fd5b84356120d581612762565b935060208501356120e581612762565b92506040850135915060608501356001600160401b0380821115612107578283fd5b818701915087601f83011261211a578283fd5b81358181111561212c5761212c61274c565b604051601f8201601f19908116603f011681019083821181831017156121545761215461274c565b816040528281528a602084870101111561216c578586fd5b82602086016020830137918201602001949094529598949750929550505050565b6000806040838503121561219f578182fd5b82356121aa81612762565b91506020830135801515811461206a578182fd5b600080604083850312156121d0578182fd5b82356121db81612762565b946020939093013593505050565b600080602083850312156121fb578182fd5b82356001600160401b0380821115612211578384fd5b818501915085601f830112612224578384fd5b813581811115612232578485fd5b8660208260051b8501011115612246578485fd5b60209290920196919550909350505050565b600060208284031215612269578081fd5b813561203681612777565b600060208284031215612285578081fd5b815161203681612777565b600080600080606085870312156122a5578384fd5b84356001600160401b03808211156122bb578586fd5b818701915087601f8301126122ce578586fd5b8135818111156122dc578687fd5b8860208285010111156122ed578687fd5b6020928301999098509187013596604001359550909350505050565b60006020828403121561231a578081fd5b5035919050565b6000815180845261233981602086016020860161268a565b601f01601f19169290920160200192915050565b6000815161235f81856020860161268a565b9290920192915050565b600080845482600182811c91508083168061238557607f831692505b60208084108214156123a557634e487b7160e01b87526022600452602487fd5b8180156123b957600181146123ca576123f6565b60ff198616895284890196506123f6565b60008b815260209020885b868110156123ee5781548b8201529085019083016123d5565b505084890196505b505050505050612406818561234d565b95945050505050565b6001600160a01b03929092168252602082015260400190565b6001600160a01b038581168252841660208201526040810183905260806060820181905260009061245b90830184612321565b9695505050505050565b6020815260006120366020830184612321565b60208082526032908201527f4552433732313a207472616e7366657220746f206e6f6e20455243373231526560408201527131b2b4bb32b91034b6b83632b6b2b73a32b960711b606082015260800190565b602080825260169082015275151a19481a59081a5cc81bdd5d081bd988189bdd5b9960521b604082015260600190565b60208082526022908201527f5468697320746f6b656e2068617320616c7265616479206265656e206d696e74604082015261195960f21b606082015260800190565b6020808252818101527f4f776e61626c653a2063616c6c6572206973206e6f7420746865206f776e6572604082015260600190565b60208082526031908201527f4552433732313a207472616e736665722063616c6c6572206973206e6f74206f6040820152701ddb995c881b9bdc88185c1c1c9bdd9959607a1b606082015260800190565b6020815260008251608060208401526125de60a0840182612321565b90506020840151601f198483030160408501526125fb8282612321565b915050604084015163ffffffff808216606086015280606087015116608086015250508091505092915050565b6000821982111561263b5761263b612720565b500190565b60008261264f5761264f612736565b500490565b600081600019048311821515161561266e5761266e612720565b500290565b60008282101561268557612685612720565b500390565b60005b838110156126a557818101518382015260200161268d565b838111156112fb5750506000910152565b600181811c908216806126ca57607f821691505b602082108114156126eb57634e487b7160e01b600052602260045260246000fd5b50919050565b600060001982141561270557612705612720565b5060010190565b60008261271b5761271b612736565b500690565b634e487b7160e01b600052601160045260246000fd5b634e487b7160e01b600052601260045260246000fd5b634e487b7160e01b600052604160045260246000fd5b6001600160a01b038116811461146d57600080fd5b6001600160e01b03198116811461146d57600080fdfea2646970667358221220afdb7890849accb0e76d3d439846c55fc70ad0fa4fb63e7b5122c180d312846464736f6c63430008040033a264697066735822122091c55746d3914fc170835ad089f28c5602a3004dc49979adef9b56291c61570c64736f6c63430008040033",
  "devdoc": {
    "kind": "dev",
    "methods": {
      "owner()": {
        "details": "Returns the address of the current owner."
      },
      "renounceOwnership()": {
        "details": "Leaves the contract without owner. It will not be possible to call `onlyOwner` functions anymore. Can only be called by the current owner. NOTE: Renouncing ownership will leave the contract without an owner, thereby removing any functionality that is only available to the owner."
      },
      "transferOwnership(address)": {
        "details": "Transfers ownership of the contract to a new account (`newOwner`). Can only be called by the current owner."
      }
    },
    "version": 1
  },
  "userdoc": {
    "kind": "user",
    "methods": {},
    "version": 1
  },
  "storageLayout": {
    "storage": [
      {
        "astId": 7,
        "contract": "contracts/Generator/NFTGalleryGenerator.sol:NFTGalleryGenerator",
        "label": "_owner",
        "offset": 0,
        "slot": "0",
        "type": "t_address"
      },
      {
        "astId": 3989,
        "contract": "contracts/Generator/NFTGalleryGenerator.sol:NFTGalleryGenerator",
        "label": "adminAddr",
        "offset": 0,
        "slot": "1",
        "type": "t_address"
      },
      {
        "astId": 3992,
        "contract": "contracts/Generator/NFTGalleryGenerator.sol:NFTGalleryGenerator",
        "label": "slottingFee",
        "offset": 0,
        "slot": "2",
        "type": "t_uint256"
      }
    ],
    "types": {
      "t_address": {
        "encoding": "inplace",
        "label": "address",
        "numberOfBytes": "20"
      },
      "t_uint256": {
        "encoding": "inplace",
        "label": "uint256",
        "numberOfBytes": "32"
      }
    }
  }
}